{
  "contractName": "FoodSafe",
  "abi": [
    {
      "constant": false,
      "inputs": [
        {
          "name": "LocationId",
          "type": "uint256"
        },
        {
          "name": "Name",
          "type": "string"
        },
        {
          "name": "Secret",
          "type": "string"
        }
      ],
      "name": "AddNewLocation",
      "outputs": [],
      "payable": false,
      "stateMutability": "nonpayable",
      "type": "function"
    },
    {
      "constant": true,
      "inputs": [],
      "name": "GetTrailCount",
      "outputs": [
        {
          "name": "",
          "type": "uint8"
        }
      ],
      "payable": false,
      "stateMutability": "view",
      "type": "function"
    },
    {
      "constant": true,
      "inputs": [
        {
          "name": "TrailNo",
          "type": "uint256"
        }
      ],
      "name": "GetLocation",
      "outputs": [
        {
          "name": "",
          "type": "string"
        },
        {
          "name": "",
          "type": "uint256"
        },
        {
          "name": "",
          "type": "uint256"
        },
        {
          "name": "",
          "type": "uint256"
        },
        {
          "name": "",
          "type": "string"
        }
      ],
      "payable": false,
      "stateMutability": "view",
      "type": "function"
    }
  ],
  "bytecode": "0x60606040526000600160006101000a81548160ff021916908360ff160217905550341561002b57600080fd5b61069d8061003a6000396000f300606060405260043610610057576000357c0100000000000000000000000000000000000000000000000000000000900463ffffffff168063988bbca31461005c578063bbe42af814610105578063ec85862d14610134575b600080fd5b341561006757600080fd5b610103600480803590602001909190803590602001908201803590602001908080601f0160208091040260200160405190810160405280939291908181526020018383808284378201915050505050509190803590602001908201803590602001908080601f01602080910402602001604051908101604052809392919081815260200183838082843782019150505050505091905050610251565b005b341561011057600080fd5b610118610385565b604051808260ff1660ff16815260200191505060405180910390f35b341561013f57600080fd5b610155600480803590602001909190505061039c565b604051808060200186815260200185815260200184815260200180602001838103835288818151815260200191508051906020019080838360005b838110156101ab578082015181840152602081019050610190565b50505050905090810190601f1680156101d85780820380516001836020036101000a031916815260200191505b50838103825284818151815260200191508051906020019080838360005b838110156102115780820151818401526020810190506101f6565b50505050905090810190601f16801561023e5780820380516001836020036101000a031916815260200191505b5097505050505050505060405180910390f35b610259610568565b82816000018190525083816020018181525050818160800181905250428160600181815250506000600160009054906101000a900460ff1660ff161415156102cd57600080600160009054906101000a900460ff1660ff168152602001908152602001600020600101548160400181815250505b80600080600160009054906101000a900460ff1660ff168152602001908152602001600020600082015181600001908051906020019061030e9291906105a4565b5060208201518160010155604082015181600201556060820151816003015560808201518160040190805190602001906103499291906105a4565b509050506001600081819054906101000a900460ff168092919060010191906101000a81548160ff021916908360ff1602179055505050505050565b6000600160009054906101000a900460ff16905090565b6103a4610624565b60008060006103b1610624565b60008087815260200190815260200160002060000160008088815260200190815260200160002060010154600080898152602001908152602001600020600201546000808a8152602001908152602001600020600301546000808b8152602001908152602001600020600401848054600181600116156101000203166002900480601f0160208091040260200160405190810160405280929190818152602001828054600181600116156101000203166002900480156104b25780601f10610487576101008083540402835291602001916104b2565b820191906000526020600020905b81548152906001019060200180831161049557829003601f168201915b50505050509450808054600181600116156101000203166002900480601f01602080910402602001604051908101604052809291908181526020018280546001816001161561010002031660029004801561054e5780601f106105235761010080835404028352916020019161054e565b820191906000526020600020905b81548152906001019060200180831161053157829003601f168201915b505050505090509450945094509450945091939590929450565b60a06040519081016040528061057c610638565b815260200160008152602001600081526020016000815260200161059e610638565b81525090565b828054600181600116156101000203166002900490600052602060002090601f016020900481019282601f106105e557805160ff1916838001178555610613565b82800160010185558215610613579182015b828111156106125782518255916020019190600101906105f7565b5b509050610620919061064c565b5090565b602060405190810160405280600081525090565b602060405190810160405280600081525090565b61066e91905b8082111561066a576000816000905550600101610652565b5090565b905600a165627a7a72305820f5e565fe15dbb36164506634cffb6dc8204a3c6a7226be644c06d97b21198db60029",
  "source": "pragma solidity ^0.4.6;\n\ncontract FoodSafe {\n\n    struct Location {\n        string Name;\n        uint LocationId;\n        uint PreviousLocationId;\n        uint Timestamp;\n        string Secret;\n    }\n\n    mapping(uint => Location) Trail;\n    uint8 TrailCount = 0;\n\n    function AddNewLocation(uint LocationId, string Name, string Secret) public {\n\n        Location memory newLocation;\n        newLocation.Name = Name;\n        newLocation.LocationId = LocationId;\n        newLocation.Secret = Secret;\n        newLocation.Timestamp = now;\n\n        if (TrailCount != 0) {\n            newLocation.PreviousLocationId = Trail[TrailCount].LocationId;\n        }\n\n        Trail[TrailCount] = newLocation;\n        TrailCount++;\n    }\n\n    function GetTrailCount() public view returns (uint8){\n        return TrailCount;\n    }\n\n    function GetLocation(uint TrailNo) public view returns (string, uint, uint, uint, string) {\n        return (Trail[TrailNo].Name, Trail[TrailNo].LocationId, Trail[TrailNo].PreviousLocationId, Trail[TrailNo].Timestamp, Trail[TrailNo].Secret);\n    }\n}",
  "sourcePath": "/home/alex/projects/ethereum-foodsafe/contracts/FoodSafe.sol",
  "compiler": {
    "name": "solc",
    "version": "0.4.18+commit.9cf6e910.Emscripten.clang"
  },
  "schemaVersion": "1.0.1",
  "updatedAt": "2017-12-22T15:57:20.277Z"
}